:020000040800F2
:1000000000000220758F0008B90D0008BF0D000820
:10001000C50D0008CB0D0008D10D00080000000040
:10002000000000000000000000000000D70D0008E4
:10003000E50D000800000000F30D0008010E0008A7
:10004000C58F0008C58F0008C58F0008C58F000840
:10005000C58F0008C58F0008C58F0008C58F000830
:10006000C58F0008C58F0008C58F0008C58F000820
:10007000C58F0008C58F0008C58F00080D0E000849
:10008000C58F0008C58F0008C58F0008C58F000800
:10009000C58F0008C58F0008C58F0008C58F0008F0
:1000A000C58F0008C58F0008C58F0008C58F0008E0
:1000B000C58F0008C58F0008C58F0008C58F0008D0
:1000C000C58F0008C58F0008C58F0008C58F0008C0
:1000D000C58F0008C58F0008C58F0008210E0008D5
:1000E000C58F0008C58F000800000000C58F0008FC
:1000F000C58F0008C58F0008C58F0008C58F000890
:10010000C58F0008C58F0008C58F0008C58F00087F
:10011000C58F0008C58F0008C58F0008C58F00086F
:10012000C58F0008C58F0008C58F0008C58F00085F
:10013000C58F0008C58F0008C58F0008C58F00084F
:1001400000000000000000000000000000000000AF
:10015000C58F0008C58F0008C58F0008C58F00082F
:10016000C58F0008C58F0008C58F0008C58F00081F
:10017000C58F0008C58F0008C58F0008000000006B
:10018000C58F0008C58F0008C58F0008C58F0008FF
:10019000C58F0008C58F0008C58F0008C58F0008EF
:1001A000C58F0008C58F0008C58F0008C58F0008DF
:1001B000C58F0008C58F0008C58F0008C58F0008CF
:1001C000C58F0008C58F0008C58F0008C58F0008BF
:1001D000C58F0008C58F0008C58F0008C58F0008AF
:1001E000C58F0008C58F0008C58F0008C58F00089F
:1001F000C58F0008C58F0008C58F0008C58F00088F
:10020000C58F0008C58F0008C58F0008C58F00087E
:10021000C58F0008C58F0008C58F0008C58F00086E
:10022000C58F0008C58F0008C58F000800000000BA
:10023000C58F0008C58F000800000000C58F0008AA
:10024000C58F0008C58F0008C58F0008C58F00083E
:10025000C58F0008C58F0008C58F0008C58F00082E
:10026000C58F0008C58F0008C58F0008C58F00081E
:10027000C58F0008C58F0008C58F0008000000006A
:10028000C58F0008C58F0008C58F0008000000005A
:0802900000000000C58F00080A
:1002980010B5054C237833B9044B13B10448AFF3B8
:1002A80000800123237010BDD00000200000000052
:1002B8002090000808B5034B1BB103490348AFF36E
:1002C800008008BD00000000D40000202090000835
:1002D80053B94AB9002908BF00281CBF4FF0FF31A5
:1002E8004FF0FF3000F07AB9ADF1080C6DE904CE9B
:1002F80000F006F8DDF804E0DDE9022304B07047F9
:100308002DE9F0478C460D460446089E002B51D136
:100318008A4217466DD9B2FA82FEBEF1000F0BD0A1
:10032800CEF1200C01FA0EF520FA0CFC02FA0EF7B9
:100338004CEA050C00FA0EF44FEA174A250CBCFBF0
:10034800FAF81FFA87F90AFB18CC45EA0C4508FBAE
:1003580009F3AB420AD9ED1908F1FF3280F0238185
:10036800AB4240F22081A8F102083D44ED1AA4B244
:10037800B5FBFAF00AFB105544EA054400FB09F9FD
:10038800A14509D9E41900F1FF3380F00A81A1459C
:1003980040F2078102383C44A4EB090440EA0840D3
:1003A8000021002E61D024FA0EF40023346073601B
:1003B800BDE8F0878B4207D9002E54D0002186E88B
:1003C80021000846BDE8F087B3FA83F1002940F020
:1003D8008E80AB4202D3824200F2FA80841A65EB27
:1003E80003050120AC46002E3FD086E81010BDE87A
:1003F800F08712B90127B7FBF2F7B7FA87FEBEF10B
:10040800000F34D1EB1B3A0C1FFA87FC0121B3FB18
:10041800F2F8250C02FB183345EA03450CFB08F3F8
:10042800AB4207D9ED1908F1FF3002D2AB4200F216
:10043800D1808046ED1AA3B2B5FBF2F002FB10554D
:1004480043EA05440CFB00FCA44507D9E41900F174
:10045800FF3302D2A44500F2B8801846A4EB0C047E
:1004680040EA08409DE731463046BDE8F087CEF1C6
:10047800200405FA0EF307FA0EF720FA04F83A0CEE
:1004880025FA04F448EA0308B4FBF2F14FEA1845E8
:1004980002FB11441FFA87FC45EA044501FB0CF3F3
:1004A800AB4200FA0EF409D9ED1901F1FF3080F0E2
:1004B8008A80AB4240F2878002393D44EB1A1FFA2A
:1004C80088F5B3FBF2F002FB103345EA034500FB65
:1004D8000CF3AB4207D9ED1900F1FF386FD2AB42EC
:1004E8006DD902383D44EB1A40EA01418FE7C1F16A
:1004F800200722FA07F88B4005FA01F448EA0303BB
:1005080020FA07FE4FEA134CFD404EEA040EB5FBF5
:10051800FCF94FEA1E440CFB19551FFA83F844EA0C
:10052800054509FB08F4AC4202FA01F200FA01FAA7
:1005380008D9ED1809F1FF3043D2AC4241D9A9F1ED
:1005480002091D442D1B1FFA8EFEB5FBFCF00CFBA7
:1005580010554EEA054400FB08F8A04507D9E418F1
:1005680000F1FF3529D2A04527D902381C4440EABA
:100578000940A4EB0804A0FB02894C45C6464D4639
:1005880015D312D056B1BAEB0E0364EB050404FA86
:1005980007F7CB401F43CC40376074600021BDE8AB
:1005A800F0871846F8E69046E0E6C245EAD2B8EB8E
:1005B800020E69EB03050138E4E72846D7E7404611
:1005C80091E78146BEE7014678E702383C4445E7B3
:1005D800084608E7A8F102083D442BE7704700BF2A
:1005E80080B500AF00F02AFA00F0A8FC00F016F879
:1005F80000F036F900F014F900F07AF800F0C4F8C9
:1006080019220449044806F05FFE642000F028FD22
:10061800F6E700BF00000038F400002080B59CB069
:1006280000AF07F124034C220021184608F0ECFC27
:100638003B1D20220021184608F0E6FC022004F0A9
:10064800F9FA00233B60284A274BDB6A23F00103B1
:10065800D362254BDB6A03F001033B60234A234B3B
:100668009B6923F4404343F4004393611F4B9B6908
:1006780003F440433B603B6800BF1C4B9B6903F499
:100688000053B3F5005FF8D102237B6201233B637B
:1006980040237B630023BB6407F12403184604F05E
:1006A80003FB0346002B01D000F0F5F93F237B60E4
:1006B8000023BB600023FB6000233B6100237B61B8
:1006C8000023BB610023FB6100233B623B1D01212A
:1006D800184604F015FF0346002B01D000F0DBF9A3
:1006E80000BF7037BD4680BD00040058004802585E
:1006F80080B500AF1E4B1F4A1A601F4B00221A70AC
:100708001D4B80225A701C4BE1229A701A4B002212
:10071800DA70194B00221A71174B00225A71144BC8
:10072800154A5A60124B01221A72114B134ADA60A9
:100738000F4B134A1A610E4B40F2F4525A610C489F
:1007480003F090FC0346002B01D000F0A4F93822F6
:1007580000210C4808F058FC0A4B21221A60094B6A
:100768004FF440325A61074B00221A6100BF80BD26
:10077800FC01002000800240EC00002070000020F6
:1007880010000020AC02002080B500AF224B234AA5
:100798001A60214B4FF416525A601F4B00229A6080
:1007A8001D4B0022DA601C4B00221A611A4B0C22E6
:1007B8005A61194B00229A61174B0022DA61164BD5
:1007C80000221A62144B00225A62134B00229A62CA
:1007D800114806F029FD0346002B01D000F05BF913
:1007E80000210D4808F0F7FA0346002B01D000F06D
:1007F80052F90021084808F02CFB0346002B01D0D1
:1008080000F049F9044808F0ADFA0346002B01D07E
:1008180000F041F900BF80BDF4000020004800400E
:1008280080B582B000AF0D4A0C4BD3F8D83043F0F6
:100838000103C2F8D830094BD3F8D83003F00103CC
:100848007B607B68002200210F2000F024FD0F2030
:1008580000F03BFD00BF0837BD4680BD004402588C
:1008680080B58CB000AF07F11C0300221A605A60F3
:100878009A60DA601A616A4A694BD3F8E03043F04B
:100888000403C2F8E030664BD3F8E03003F0040309
:10089800BB61BB69624A624BD3F8E03043F0800326
:1008A800C2F8E0305E4BD3F8E03003F080037B61A0
:1008B8007B695B4A5A4BD3F8E03043F00103C2F836
:1008C800E030574BD3F8E03003F001033B613B695C
:1008D800534A534BD3F8E03043F00203C2F8E030F8
:1008E8004F4BD3F8E03003F00203FB60FB684C4A3F
:1008F8004B4BD3F8E03043F00803C2F8E030484BE4
:10090800D3F8E03003F00803BB60BB68444A444BAB
:10091800D3F8E03043F04003C2F8E030404BD3F85E
:10092800E03003F040037B607B683D4A3C4BD3F8E2
:10093800E03043F01003C2F8E030394BD3F8E03030
:1009480003F010033B603B68002244F20101354884
:1009580004F056F900224FF48061334804F050F94E
:1009680000220221314804F04BF94FF40053FB6197
:1009780000233B6200237B6207F11C0319462C48C5
:1009880003F08EFF44F20103FB6101233B62002365
:100998007B620023BB6207F11C031946214803F060
:1009A8007FFF4FF48063FB6101233B6200237B627E
:1009B8000023BB6207F11C0319461B4803F070FFB4
:1009C8008023FB614FF488133B6200237B6207F1AD
:1009D8001C031946174803F063FF4FF4C853FB6123
:1009E80002233B6200237B620023BB620A23FB6273
:1009F80007F11C031946104803F052FF0223FB615C
:100A080001233B6200237B620023BB6207F11C03C6
:100A18001946064803F044FF00BF3037BD4680BD85
:100A28000044025800040258000C025800100258F2
:100A380000080258001802580000025880B584B017
:100A480000AF3B4600221A605A609A60DA6000F0F4
:100A580057FC01233B7000237B704FF060537B6091
:100A68000F233B7287237B720023BB720023FB7228
:100A780001233B7301237B730023BB730023FB73A8
:100A88003B46184600F070FC042000F04FFC00BF05
:100A98001037BD4680BD80B400AF72B6FEE70000D7
:100AA80080B483B000AF0A4A094BD3F8F43043F05E
:100AB8000203C2F8F430064BD3F8F43003F0020313
:100AC8007B607B6800BF0C37BD465DF8047B7047D0
:100AD8000044025880B58EB000AF786007F1240357
:100AE80000221A605A609A60DA601A617B681B6893
:100AF800594A934240F0AB80584A584BD3F8D83003
:100B080043F40043C2F8D830544BD3F8D83003F438
:100B180000433B623B6A514A504BD3F8D83043F408
:100B28008033C2F8D8304D4BD3F8D83003F4803333
:100B3800FB61FB69494A494BD3F8D83043F4003389
:100B4800C2F8D830454BD3F8D83003F40033BB6132
:100B5800BB69424A414BD3F8E03043F00403C2F882
:100B6800E0303E4BD3F8E03003F004037B617B694F
:100B78003A4A3A4BD3F8E03043F00103C2F8E03088
:100B8800364BD3F8E03003F001033B613B69334A4D
:100B9800324BD3F8E03043F00203C2F8E0302F4B79
:100BA800D3F8E03003F00203FB60FB682B4A2B4BC1
:100BB800D3F8E03043F04003C2F8E030274BD3F8D5
:100BC800E03003F04003BB60BB6832237B62022342
:100BD800BB620023FB6200233B630B237B6307F1AB
:100BE800240319461E4803F05BFE86237B6202231A
:100BF800BB620023FB6200233B630B237B6307F18B
:100C080024031946174803F04BFE4FF400537B6248
:100C18000223BB620023FB6200233B630B237B633D
:100C280007F124031946104803F03AFE4FF4205305
:100C38007B620223BB620023FB6200233B630B231E
:100C48007B6307F124031946084803F029FE00BF17
:100C58003837BD4680BD00BF0080024000440258BE
:100C680000080258000002580004025800180258F0
:100C780080B5B8B000AF786007F1CC0300221A60E5
:100C88005A609A60DA601A6107F11003BC220021E9
:100C9800184608F0B9F97B681B68404A934278D136
:100CA80002233B610023C7F8843007F1100318467C
:100CB80004F0AAFF0346002B01D0FFF7ECFE384AE8
:100CC800374BD3F8E83043F48023C2F8E830344B8C
:100CD800D3F8E83003F48023FB60FB68304A304BDC
:100CE800D3F8E03043F00803C2F8E0302C4BD3F8D7
:100CF800E03003F00803BB60BB684FF44073C7F8EB
:100D0800CC300223C7F8D0300023C7F8D4300023F2
:100D1800C7F8D8300723C7F8DC3007F1CC031946E9
:100D2800204803F0BDFD204B204A1A601E4B2E229E
:100D38005A601D4B40229A601B4B0022DA601A4B06
:100D48004FF480621A61184B00225A61164B002238
:100D58009A61154B0022DA61134B4FF400321A6284
:100D6800114B00225A62104800F042FB0346002B48
:100D780001D0FFF790FE7B680B4A9A670A4A7B68A6
:100D8800936300220021272000F085FA272000F035
:100D98009CFA00BFE037BD4680BD00BF0048004058
:100DA80000440258000C02588401002070000240E0
:100DB80080B400AFFEE780B400AFFEE780B400AFB8
:100DC800FEE780B400AFFEE780B400AFFEE780B472
:100DD80000AF00BFBD465DF8047B704780B400AF2C
:100DE80000BFBD465DF8047B704780B400AF00BF0C
:100DF800BD465DF8047B704780B500AF00F010F980
:100E080000BF80BD80B500AF024801F019FE00BFE9
:100E180080BD00BF8401002080B500AF024806F005
:100E2800E5FA00BF80BD00BFF400002080B400AF29
:100E3800374A374BD3F8883043F47003C2F8883008
:100E4800344B1B6803F00F03062B07D8314A314B8C
:100E58001B6823F00F0343F0070313602E4A2E4B41
:100E68001B6843F0010313602B4B00221A612A49C7
:100E7800294B1A68294B13400B60264B1B6803F05B
:100E88000F03072B07D9234A224B1B6823F00F03B4
:100E980043F007031360204B00229A611E4B002287
:100EA800DA611D4B00221A621B4B1D4A9A621A4BCB
:100EB8001C4ADA62184B1C4A1A63174B00225A6301
:100EC800154B194A9A63144B0022DA63124B164ADF
:100ED8001A64114B00225A640F4A0F4B1B6823F403
:100EE800802313600C4B00221A66104B1A68104BB3
:100EF8001340B3F1005F02D20E4B01221A600E4B71
:100F080043F2D2021A6000BFBD465DF8047B704709
:100F180000ED00E000200052004402587FEDF6EAA0
:100F2800000202020000FF01800201010010005CC3
:100F38000000FFFF088100510040005280B582B0D8
:100F480000AF032000F09CF904F090FC0146154B1B
:100F58009B691B0A03F00F03134AD35C03F01F03BA
:100F680021FA03F37B600F4B9B6903F00F030E4AD2
:100F7800D35C03F01F037A6822FA03F30B4A136069
:100F88000B4A7B681360002000F014F80346002B1E
:100F980001D0012302E0FFF783FD0023184608373C
:100FA800BD4680BD00440258389000080400002067
:100FB8000000002080B582B000AF7860154B1B7828
:100FC800002B01D1012321E0134B1A68114B1B7828
:100FD80019464FF47A73B3FBF1F3B2FBF3F31846F7
:100FE80000F081F90346002B01D001230EE07B6855
:100FF8000F2B0AD8002279684FF0FF3000F04BF928
:10100800064A7B681360002300E00123184608376E
:10101800BD4680BD0C000020000000200800002014
:1010280080B400AF064B1B781A46064B1B68134466
:10103800044A136000BFBD465DF8047B704700BFDB
:101048000C000020E402002080B400AF034B1B68B2
:101058001846BD465DF8047B704700BFE4020020D7
:1010680080B584B000AF7860FFF7EEFFB8607B68AA
:10107800FB60FB68B3F1FF3F05D0094B1B781A46AC
:10108800FB681344FB6000BFFFF7DEFF0246BB6846
:10109800D21AFB689A42F7D300BF1037BD4680BD0D
:1010A8000C00002080B400AF034B1B681B0C1846D3
:1010B800BD465DF8047B70470010005C80B483B0C7
:1010C80000AF78600649064B5B6823F460027B68D2
:1010D80013434B6000BF0C37BD465DF8047B704777
:1010E8000004005880B485B000AF78607B6803F0D6
:1010F8000703FB600B4BDB68BB60BA684FF6FF0366
:101108001340BB60FB681A02BB681A43064B1343C3
:10111800BB60044ABB68D36000BF1437BD465DF8A6
:10112800047B704700ED00E00000FA0580B400AFD2
:10113800044BDB681B0A03F007031846BD465DF83D
:10114800047B704700ED00E080B483B000AF034635
:10115800FB80B7F90630002B0BDB0949B7F90630DD
:101168005B09FA8802F01F02012000FA02F241F836
:10117800232000BF0C37BD465DF8047B704700BFD5
:1011880000E100E080B483B000AF03463960FB8023
:10119800B7F90630002B0ADB0D49B7F906303A6873
:1011A800D2B21201D2B20B4483F800230AE00949F3
:1011B800FB8803F00F03043B3A68D2B21201D2B2A3
:1011C8000B441A7600BF0C37BD465DF8047B7047A8
:1011D80000E100E000ED00E080B489B000AFF86005
:1011E800B9607A60FB6803F00703FB61FB69C3F130
:1011F8000703042B28BF0423BB61FB690433062BB8
:1012080002D9FB69033B00E000237B610122BB6933
:1012180002FA03F35A1EBB681A407B699A400121FF
:101228007B6901FA03F3591E7B680B401343184688
:101238002437BD465DF8047B7047000080B582B056
:1012480000AF78607B68013BB3F1807F01D3012355
:101258000FE00A4A7B68013B53600F214FF0FF30D3
:10126800FFF790FF054B00229A60044B07221A6093
:10127800002318460837BD4680BD00BF10E000E0D7
:1012880080B582B000AF78607868FFF72BFF00BFA9
:101298000837BD4680BD80B586B000AF0346B9604B
:1012A8007A60FB81FFF742FF78617A68B9687869EC
:1012B800FFF792FF0246B7F90E3011461846FFF7BE
:1012C80061FF00BF1837BD4680BD80B582B000AF52
:1012D8000346FB80B7F906301846FFF735FF00BF15
:1012E8000837BD4680BD80B582B000AF78607868A9
:1012F800FFF7A4FF034618460837BD4680BD000027
:1013080080B400AFBFF35F8F064A064B5B6A23F4D5
:1013180080335362044B00225A6000BFBD465DF81B
:10132800047B704700ED00E090ED00E080B483B0EE
:1013380000AF78600A4A7B6843F001035360094AAA
:10134800084B5B6A43F480335362BFF34F8FBFF39C
:101358006F8F00BF0C37BD465DF8047B704700BF38
:1013680090ED00E000ED00E080B483B000AF78605D
:101378001E4A7B685B7893607B681B78002B28D0BB
:101388001A4A7B685B68D36018497B681B7B1A071D
:101398007B68DB7A1B061A437B689B7ADB041A435B
:1013A8007B685B7B9B041A437B689B7B5B041A43CB
:1013B8007B68DB7B1B041A437B685B7A1B021A433E
:1013C8007B681B7A5B0013437A68127813430B61BE
:1013D80005E0064B0022DA60044B00221A6100BFC8
:1013E8000C37BD465DF8047B704700BF90ED00E008
:1013F80080B586B000AF7860FFF726FE38617B685D
:10140800002B01D1012316E37B681B68664A9342CF
:101418004AD07B681B68654A934245D07B681B6845
:10142800634A934240D07B681B68624A93423BD030
:101438007B681B68604A934236D07B681B685F4AAA
:10144800934231D07B681B685D4A93422CD07B68FD
:101458001B685C4A934227D07B681B685A4A9342B0
:1014680022D07B681B68594A93421DD07B681B6851
:10147800574A934218D07B681B68564A934213D048
:101488007B681B68544A93420ED07B681B68534A9A
:10149800934209D07B681B68514A934204D07B6809
:1014A8001B68504A934201D1012300E00023002B1E
:1014B80000F03B817B68022283F835207B6800229C
:1014C80083F834207B681B68374A93424AD07B688C
:1014D8001B68364A934245D07B681B68344A93425E
:1014E80040D07B681B68334A93423BD07B681B68BB
:1014F800314A934236D07B681B68304A934231D0D8
:101508007B681B682E4A93422CD07B681B682D4A47
:10151800934227D07B681B682B4A934222D07B6872
:101528001B682A4A93421DD07B681B68284A93424D
:1015380018D07B681B68274A934213D07B681B68C6
:10154800254A93420ED07B681B68244A934209D0EF
:101558007B681B68224A934204D07B681B68214A37
:10156800934208D17B681B687A681268126822F077
:1015780001021A6007E07B681B687A6812681268C3
:1015880022F001021A602FE0FFF75EFD02463B6978
:10159800D31A052B28D97B6820225A657B68032239
:1015A80083F83520012346E210000240280002405B
:1015B800400002405800024070000240880002408B
:1015C800A0000240B8000240100402402804024073
:1015D800400402405804024070040240880402405B
:1015E800A0040240B80402407B681B681B6803F033
:1015F8000103002BC8D17B681B681B687B617A6973
:10160800834B13407B617B689A687B68DB681A436D
:101618007B681B691A437B685B691A437B689B6913
:101628001A437B68DB691A437B681B6A13437A6930
:1016380013437B617B685B6A042B07D17B68DA6A9A
:101648007B681B6B13437A6913437B61714B1A6880
:10165800714B1340B3F1005F28D37B685B68282B7C
:1016680003D97B685B682E2B17D97B685B683E2B98
:1016780003D97B685B68422B0FD97B685B68462B74
:1016880003D97B685B68482B07D97B685B684E2B5E
:1016980005D97B685B68522B01D8012300E0002341
:1016A800002B03D07B6943F480137B617B681B6844
:1016B8007A691A607B681B685B697B617B6923F0C8
:1016C80007037B617B685B6A7A6913437B617B688C
:1016D8005B6A042B17D17B689B6A7A6913437B6129
:1016E8007B68DB6A002B0ED0786802F031FB03467A
:1016F800002B08D07B6840225A657B68012283F85A
:101708003520012397E17B681B687A695A617868FC
:1017180002F06CFA0346FB607B68DB6D03F01F0385
:101728003F229A40FB689A60CDE07B681B683B4A81
:10173800934222D07B681B68394A93421DD07B684C
:101748001B68384A934218D07B681B68364A934214
:1017580013D07B681B68354A93420ED07B681B68A0
:10176800334A934209D07B681B68324A934204D0BB
:101778007B681B68304A934201D1012300E00023B3
:10178800002B00F097807B681B68244A934221D085
:101798007B681B68224A93421CD07B681B68214ADD
:1017A800934217D07B681B681F4A934212D07B680C
:1017B8001B681E4A93420DD07B681B681C4A9342E3
:1017C80008D07B681B681B4A934203D07B681B6860
:1017D800194A934200BF7B68022283F835207B6850
:1017E800002283F834207B681B681B687B617A6958
:1017F800124B13407B617B689B68402B20D07B6831
:101808009B68802B02D14FF480431AE0002318E034
:101818003F8010FE0010005C0000FFFF08540258D3
:101828001C54025830540258445402585854025810
:101838006C54025880540258945402580F00FEFF0A
:1018480010237A68D268D2081A437B681B69DB08C0
:101858001A437B685B69DB081A437B689B69DB0872
:101868001A437B68DB69DB081A437B681B6A1B0920
:1018780013437A6913437B617B681B687A691A6032
:101888007B681B681A466E4B13446E4AA2FB0323FF
:101898001B099A007B68DA65786802F0A7F90346A5
:1018A800BB607B68DB6D03F01F0301229A40BB68B5
:1018B8005A6008E07B6840225A657B68032283F8F7
:1018C80035200123B7E07B681B685F4A934272D0DA
:1018D8007B681B685D4A93426DD07B681B685C4AD5
:1018E800934268D07B681B685A4A934263D07B68EE
:1018F8001B68594A93425ED07B681B68574A9342DB
:1019080059D07B681B68564A934254D07B681B6841
:10191800544A93424FD07B681B68534A93424AD03B
:101928007B681B68514A934245D07B681B68504AC4
:10193800934240D07B681B684E4A93423BD07B68F9
:101948001B684D4A934236D07B681B684B4A9342CA
:1019580031D07B681B684A4A93422CD07B681B684D
:10196800484A934227D07B681B68474A934222D053
:101978007B681B68454A93421DD07B681B68444AB4
:10198800934218D07B681B68424A934213D07B6805
:101998001B68414A93420ED07B681B683F4A9342BA
:1019A80009D07B681B683E4A934204D07B681B6859
:1019B8003C4A934201D1012300E00023002B32D09E
:1019C800786802F041FA7B689B68802B02D17B68BB
:1019D80000225A607B681B6E7A685268D2B21A601D
:1019E8007B685B6E7A68926E5A607B685B68002BD6
:1019F80010D07B685B68082B0CD8786802F0BEFAB8
:101A08007B68DB6E00221A607B681B6F7A68526FF6
:101A18005A6008E07B680022DA667B6800221A6751
:101A28007B6800225A677B6800225A657B6801221E
:101A380083F83520002318461837BD4680BD00BFFF
:101A4800F8ABFDA7CDCCCCCC10000240280002405A
:101A580040000240580002407000024088000240E6
:101A6800A0000240B80002401004024028040240CE
:101A780040040240580402407004024088040240B6
:101A8800A0040240B8040240085402581C540258EA
:101A98003054025844540258585402586C5402584E
:101AA800805402589454025880B586B000AFF8604C
:101AB800B9607A603B600023FB75FB68002B01D19D
:101AC800012326E2FB6893F83430012B01D102236D
:101AD8001FE2FB68012283F83420FB6893F8353055
:101AE800DBB2012B40F00A82FB68022283F8352022
:101AF800FB6800225A65FB681B68684A93424AD013
:101B0800FB681B68664A934245D0FB681B68654AB8
:101B1800934240D0FB681B68634A93423BD0FB6802
:101B28001B68624A934236D0FB681B68604A93423E
:101B380031D0FB681B685F4A93422CD0FB681B6856
:101B48005D4A934227D0FB681B685C4A934222D0C7
:101B5800FB681B685A4A93421DD0FB681B68594AA8
:101B6800934218D0FB681B68574A934213D0FB680E
:101B78001B68564A93420ED0FB681B68544A93422E
:101B880009D0FB681B68534A934204D0FB681B6862
:101B9800514A934208D1FB681B68FA6812681268B8
:101BA80022F001021A6007E0FB681B68FA681268F5
:101BB800126822F001021A603B687A68B968F8680E
:101BC80001F068FEFB681B68344A93424AD0FB6800
:101BD8001B68334A934245D0FB681B68314A9342DD
:101BE80040D0FB681B68304A93423BD0FB681B68B7
:101BF8002E4A934236D0FB681B682D4A934231D057
:101C0800FB681B682B4A93422CD0FB681B682A4A46
:101C1800934227D0FB681B68284A934222D0FB686E
:101C28001B68274A93421DD0FB681B68254A9342CC
:101C380018D0FB681B68244A934213D0FB681B68C2
:101C4800224A93420ED0FB681B68214A934209D06E
:101C5800FB681B681F4A934204D0FB681B681E4A36
:101C6800934201D1012300E00023002B36D0FB680A
:101C78001B68FA681268126822F01E0242F0160207
:101C88001A60FB681B6C002B3ED0FB681B68FA6867
:101C98001268126842F008021A6035E0100002402B
:101CA80028000240400002405800024070000240F4
:101CB80088000240A0000240B80002401004024020
:101CC80028040240400402405804024070040240C4
:101CD80088040240A0040240B8040240FB681B6864
:101CE800FA681268126822F00E0242F00A021A60BC
:101CF800FB681B6C002B07D0FB681B68FA6812682E
:101D0800126842F004021A60FB681B68834A934217
:101D180072D0FB681B68824A93426DD0FB681B68CF
:101D2800804A934268D0FB681B687F4A934263D01D
:101D3800FB681B687D4A93425ED0FB681B687C4A3F
:101D4800934259D0FB681B687A4A934254D0FB6887
:101D58001B68794A93424FD0FB681B68774A9342C5
:101D68004AD0FB681B68764A934245D0FB681B68DB
:101D7800744A934240D0FB681B68734A93423BD035
:101D8800FB681B68714A934236D0FB681B68704A2F
:101D9800934231D0FB681B686E4A93422CD0FB6893
:101DA8001B686D4A934227D0FB681B686B4A9342B5
:101DB80022D0FB681B686A4A93421DD0FB681B68E7
:101DC800684A934218D0FB681B68674A934213D04D
:101DD800FB681B68654A93420ED0FB681B68644A1F
:101DE800934209D0FB681B68624A934204D0FB689F
:101DF8001B68614A934201D1012300E00023002BB4
:101E08001AD0FB681B6E1B6803F48033002B07D0C5
:101E1800FB681B6EFA68126E126842F480721A60D0
:101E2800FB68DB6E002B07D0FB68DB6EFA68D26EAE
:101E3800126842F480721A60FB681B68374A934242
:101E48004AD0FB681B68364A934245D0FB681B683A
:101E5800344A934240D0FB681B68334A93423BD0D4
:101E6800FB681B68314A934236D0FB681B68304ACE
:101E7800934231D0FB681B682E4A93422CD0FB68F2
:101E88001B682D4A934227D0FB681B682B4A934254
:101E980022D0FB681B682A4A93421DD0FB681B6846
:101EA800284A934218D0FB681B68274A934213D0EC
:101EB800FB681B68254A93420ED0FB681B68244ABE
:101EC800934209D0FB681B68224A934204D0FB68FE
:101ED8001B68214A934208D1FB681B68FA6812689C
:101EE800126842F001021A6012E0FB681B68FA6887
:101EF8001268126842F001021A6009E0FB684FF4A8
:101F080000625A65FB68002283F834200123FB75C0
:101F1800FB7D18461837BD4680BD00BF1000024043
:101F28002800024040000240580002407000024071
:101F380088000240A0000240B8000240100402409D
:101F48002804024040040240580402407004024041
:101F580088040240A0040240B80402400854025811
:101F68001C540258305402584454025858540258C9
:101F78006C540258805402589454025880B586B064
:101F880000AF7860FFF760F838617B68002B01D1FB
:101F98000123DCE27B6893F83530DBB2022B08D0F2
:101FA8007B6880225A657B68002283F834200123ED
:101FB800CDE27B681B68764A93424AD07B681B68EF
:101FC800744A934245D07B681B68734A934240D059
:101FD8007B681B68714A93423BD07B681B68704AD8
:101FE800934236D07B681B686E4A934231D07B6837
:101FF8001B686D4A93422CD07B681B686B4A9342DE
:1020080027D07B681B686A4A934222D07B681B688A
:10201800684A93421DD07B681B68674A934218D070
:102028007B681B68654A934213D07B681B68644AC7
:1020380093420ED07B681B68624A934209D07B6842
:102048001B68614A934204D07B681B685F4A9342CD
:1020580001D1012300E00023002B13D07B681B680B
:102068007A681268126822F01E021A607B681B6880
:102078007A681268526922F080025A617B681B688C
:102088007B610AE07B681B687A681268126822F034
:102098000E021A607B681B687B617B681B683C4A80
:1020A800934272D07B681B683A4A93426DD07B6832
:1020B8001B68394A934268D07B681B68374A934249
:1020C80063D07B681B68364A93425ED07B681B6886
:1020D800344A934259D07B681B68334A934254D0A0
:1020E8007B681B68314A93424FD07B681B68304A33
:1020F80093424AD07B681B682E4A934245D07B683E
:102108001B682D4A934240D07B681B682B4A934238
:102118003BD07B681B682A4A934236D07B681B6891
:10212800284A934231D07B681B68274A93422CD0B7
:102138007B681B68254A934227D07B681B68244A22
:10214800934222D07B681B68224A93421DD07B6849
:102158001B68214A934218D07B681B681F4A934228
:1021680013D07B681B681E4A93420ED07B681B689D
:102178001C4A934209D07B681B681B4A934204D0CF
:102188007B681B68194A934232D1012331E000BFB2
:10219800100002402800024040000240580002405F
:1021A8007000024088000240A0000240B8000240CF
:1021B800100402402804024040040240580402402F
:1021C8007004024088040240A0040240B80402409F
:1021D800085402581C5402583054025844540258A7
:1021E800585402586C540258805402589454025857
:1021F8000023002B07D07B681B6E7A68126E12686A
:1022080022F480721A607B681B686D4A93424AD038
:102218007B681B686B4A934245D07B681B686A4A97
:10222800934240D07B681B68684A93423BD07B68E6
:102238001B68674A934236D07B681B68654A93429D
:1022480031D07B681B68644A93422CD07B681B683A
:10225800624A934227D07B681B68614A934222D026
:102268007B681B685F4A93421DD07B681B685E4A87
:10227800934218D07B681B685C4A934213D07B68F2
:102288001B685B4A93420ED07B681B68594A93428D
:1022980009D07B681B68584A934204D07B681B6846
:1022A800564A934208D17B681B687A68126812689C
:1022B80022F001021A6007E07B681B687A681268DE
:1022C800126822F001021A6013E0FEF7BDFE024612
:1022D8003B69D31A052B0CD97B6820225A657B6889
:1022E800032283F835207B68002283F834200123F9
:1022F8002DE17B691B6803F00103002BE5D17B68A6
:102308001B682F4A93424AD07B681B682D4A934228
:1023180045D07B681B682C4A934240D07B681B6879
:102328002A4A93423BD07B681B68294A934236D09D
:102338007B681B68274A934231D07B681B68264A12
:1023480093422CD07B681B68244A934227D07B6831
:102358001B68234A934222D07B681B68214A934218
:102368001DD07B681B68204A934218D07B681B6885
:102378001E4A934213D07B681B681D4A93420ED0B5
:102388007B681B681B4A934209D07B681B681A4A02
:10239800934204D07B681B68184A934201D10123F9
:1023A80000E00023002B2BD07B689B6DFB607B68D3
:1023B800DB6D03F01F033F229A40FB689A602AE016
:1023C800100002402800024040000240580002402D
:1023D8007000024088000240A0000240B80002409D
:1023E80010040240280402404004024058040240FD
:1023F8007004024088040240A0040240B80402406D
:102408007B689B6DBB607B68DB6D03F01F0301225B
:102418009A40BB685A607B681B684F4A934272D0E7
:102428007B681B684D4A93426DD07B681B684C4A99
:10243800934268D07B681B684A4A934263D07B68A2
:102448001B68494A93425ED07B681B68474A93429F
:1024580059D07B681B68464A934254D07B681B68F6
:10246800444A93424FD07B681B68434A93424AD000
:102478007B681B68414A934245D07B681B68404A89
:10248800934240D07B681B683E4A93423BD07B68AE
:102498001B683D4A934236D07B681B683B4A93428F
:1024A80031D07B681B683A4A93422CD07B681B6802
:1024B800384A934227D07B681B68374A934222D018
:1024C8007B681B68354A93421DD07B681B68344A79
:1024D800934218D07B681B68324A934213D07B68BA
:1024E8001B68314A93420ED07B681B682F4A93427F
:1024F80009D07B681B682E4A934204D07B681B680E
:102508002C4A934201D1012300E00023002B15D06F
:102518007B685B6E7A68926E5A607B68DB6E002B14
:102528000CD07B68DB6E7A68D26E126822F48072F7
:102538001A607B681B6F7A68526F5A607B68012249
:1025480083F835207B68002283F83420002318465E
:102558001837BD4680BD00BF100002402800024069
:1025680040000240580002407000024088000240CB
:10257800A0000240B80002401004024028040240B3
:10258800400402405804024070040240880402409B
:10259800A0040240B8040240085402581C540258CF
:1025A8003054025844540258585402586C54025833
:1025B800805402589454025880B584B000AF7860B3
:1025C8007B68002B01D1012305E27B6893F8353045
:1025D800DBB2022B04D07B6880225A650123FAE122
:1025E8007B681B688C4A93424AD07B681B688B4A7D
:1025F800934245D07B681B68894A934240D07B68E8
:102608001B68884A93423BD07B681B68864A934282
:1026180036D07B681B68854A934231D07B681B683B
:10262800834A93422CD07B681B68824A934227D006
:102638007B681B68804A934222D07B681B687F4A6C
:1026480093421DD07B681B687D4A934218D07B68F3
:102658001B687C4A934213D07B681B687A4A934272
:102668000ED07B681B68794A934209D07B681B6847
:10267800774A934204D07B681B68764A934201D11B
:10268800012300E00023002B65D07B68042283F837
:1026980035207B681B68604A93424AD07B681B6878
:1026A8005E4A934245D07B681B685D4A934240D09E
:1026B8007B681B685B4A93423BD07B681B685A4A1D
:1026C800934236D07B681B68584A934231D07B6866
:1026D8001B68574A93422CD07B681B68554A934223
:1026E80027D07B681B68544A934222D07B681B68BA
:1026F800524A93421DD07B681B68514A934218D0B6
:102708007B681B684F4A934213D07B681B684E4A0C
:1027180093420ED07B681B684C4A934209D07B6871
:102728001B684B4A934204D07B681B68494A934212
:1027380008D17B681B687A681268126822F0010267
:102748001A6047E17B681B687A681268126822F091
:1027580001021A603EE17B681B687A681268126899
:1027680022F00E021A607B681B682B4A93424AD0FB
:102778007B681B68294A934245D07B681B68284AB6
:10278800934240D07B681B68264A93423BD07B68C3
:102798001B68254A934236D07B681B68234A9342BC
:1027A80031D07B681B68224A93422CD07B681B6817
:1027B800204A934227D07B681B681F4A934222D045
:1027C8007B681B681D4A93421DD07B681B681C4AA6
:1027D800934218D07B681B681A4A934213D07B68CF
:1027E8001B68194A93420ED07B681B68174A9342AC
:1027F80009D07B681B68164A934204D07B681B6823
:10280800144A934228D17B681B687A681268126858
:1028180022F001021A6027E010000240280002405E
:102828004000024058000240700002408800024008
:10283800A0000240B80002401004024028040240F0
:1028480040040240580402407004024088040240D8
:10285800A0040240B80402407B681B687A681268CA
:10286800126822F001021A607B681B685C4A934276
:1028780072D07B681B685B4A93426DD07B681B688B
:10288800594A934268D07B681B68584A934263D080
:102898007B681B68564A93425ED07B681B68554A22
:1028A800934259D07B681B68534A934254D07B6843
:1028B8001B68524A93424FD07B681B68504A934228
:1028C8004AD07B681B684F4A934245D07B681B6897
:1028D8004D4A934240D07B681B684C4A93423BD098
:1028E8007B681B684A4A934236D07B681B68494A12
:1028F800934231D07B681B68474A93422CD07B684F
:102908001B68464A934227D07B681B68444A934217
:1029180022D07B681B68434A93421DD07B681B68A2
:10292800414A934218D07B681B68404A934213D0AF
:102938007B681B683E4A93420ED07B681B683D4A01
:10294800934209D07B681B683B4A934204D07B685A
:102958001B683A4A934201D1012300E00023002B6F
:1029680028D07B681B6E7A68126E126822F4807217
:102978001A607B689B6DFB607B68DB6D03F01F034F
:1029880001229A40FB685A607B685B6E7A68926E97
:102998005A607B68DB6E002B0CD07B68DB6E7A6834
:1029A800D26E126822F480721A607B681B6F7A6894
:1029B800526F5A607B68012283F835207B680022B9
:1029C80083F834207B681B6D002B03D07B681B6D5C
:1029D80078689847002318461037BD4680BD00BF69
:1029E8001000024028000240400002405800024007
:1029F8007000024088000240A0000240B800024077
:102A080010040240280402404004024058040240D6
:102A18007004024088040240A0040240B804024046
:102A2800085402581C54025830540258445402584E
:102A3800585402586C5402588054025894540258FE
:102A480080B58AB000AF78600023FB60674B1B68D5
:102A5800674AA2FB03239B0A7B627B689B6D3B62F0
:102A68007B689B6DFB613B6A1B68BB61FB691B68EC
:102A78007B617B681B685F4A93424AD07B681B680E
:102A88005D4A934245D07B681B685C4A934240D0BC
:102A98007B681B685A4A93423BD07B681B68594A3B
:102AA800934236D07B681B68574A934231D07B6883
:102AB8001B68564A93422CD07B681B68544A934241
:102AC80027D07B681B68534A934222D07B681B68D7
:102AD800514A93421DD07B681B68504A934218D0D4
:102AE8007B681B684E4A934213D07B681B684D4A2B
:102AF80093420ED07B681B684B4A934209D07B688F
:102B08001B684A4A934204D07B681B68484A934230
:102B180001D1012300E00023002B00F02B847B6807
:102B2800DB6D03F01F0308229A40BB691340002B9A
:102B380000F0A2807B681B682E4A93424AD07B68CB
:102B48001B682D4A934245D07B681B682B4A9342E9
:102B580040D07B681B682A4A93423BD07B681B683D
:102B6800284A934236D07B681B68274A934231D063
:102B78007B681B68254A93422CD07B681B68244AD3
:102B8800934227D07B681B68224A934222D07B68F5
:102B98001B68214A93421DD07B681B681F4A9342D9
:102BA80018D07B681B681E4A934213D07B681B6849
:102BB8001C4A93420ED07B681B681B4A934209D07B
:102BC8007B681B68194A934204D07B681B68184AC3
:102BD80093422FD17B681B681B6803F00403002B0A
:102BE80014BF01230023DBB22EE000BF0000002049
:102BF800B5814E1B100002402800024040000240F0
:102C0800580002407000024088000240A0000240C4
:102C1800B800024010040240280402404004024068
:102C2800580402407004024088040240A004024094
:102C3800B80402407B681B681B6803F00803002B7C
:102C480014BF01230023DBB2002B15D07B681B685F
:102C58007A681268126822F004021A607B68DB6DD9
:102C680003F01F0308229A403B6A9A607B685B6DF9
:102C780043F001027B685A657B68DB6D03F01F0334
:102C8800BA6922FA03F303F00103002B6ED07B68C4
:102C98001B68694A93424AD07B681B68674A93421B
:102CA80045D07B681B68664A934240D07B681B68A6
:102CB800644A93423BD07B681B68634A934236D090
:102CC8007B681B68614A934231D07B681B68604A05
:102CD80093422CD07B681B685E4A934227D07B685E
:102CE8001B685D4A934222D07B681B685B4A93420B
:102CF8001DD07B681B685A4A934218D07B681B68B2
:102D0800584A934213D07B681B68574A93420ED0A7
:102D18007B681B68554A934209D07B681B68544AF4
:102D2800934204D07B681B68524A93420AD17B685D
:102D38001B685B6903F08003002B14BF0123002389
:102D4800DBB203E07B681B681B680023002B0DD0F7
:102D58007B68DB6D03F01F0301229A403B6A9A608F
:102D68007B685B6D43F002027B685A657B68DB6DAC
:102D780003F01F0304229A40BB691340002B00F0A4
:102D88008F807B681B682C4A93424AD07B681B68FB
:102D98002A4A934245D07B681B68294A934240D00F
:102DA8007B681B68274A93423BD07B681B68264A8E
:102DB800934236D07B681B68244A934231D07B68A3
:102DC8001B68234A93422CD07B681B68214A934294
:102DD80027D07B681B68204A934222D07B681B68F7
:102DE8001E4A93421DD07B681B681D4A934218D027
:102DF8007B681B681B4A934213D07B681B681A4A7E
:102E080093420ED07B681B68184A934209D07B68AE
:102E18001B68174A934204D07B681B68154A934283
:102E28002AD17B681B681B6803F00203002B14BFC0
:102E380001230023DBB223E01000024028000240F7
:102E480040000240580002407000024088000240E2
:102E5800A0000240B80002401004024028040240CA
:102E680040040240580402407004024088040240B2
:102E7800A0040240B80402407B681B681B6800235A
:102E8800002B0DD07B68DB6D03F01F0304229A40F2
:102E98003B6A9A607B685B6D43F004027B685A6505
:102EA8007B68DB6D03F01F0310229A40BB69134057
:102EB800002B00F0A6807B681B68854A93424AD0A5
:102EC8007B681B68834A934245D07B681B68824AAB
:102ED800934240D07B681B68804A93423BD07B6812
:102EE8001B687F4A934236D07B681B687D4A9342B1
:102EF80031D07B681B687C4A93422CD07B681B6866
:102F08007A4A934227D07B681B68794A934222D039
:102F18007B681B68774A93421DD07B681B68764A9A
:102F2800934218D07B681B68744A934213D07B681D
:102F38001B68734A93420ED07B681B68714A9342A0
:102F480009D07B681B68704A934204D07B681B6871
:102F58006E4A93420AD17B681B681B6803F008031A
:102F6800002B14BF01230023DBB209E07B681B6838
:102F78001B6803F00403002B14BF01230023DBB2FA
:102F8800002B3ED07B68DB6D03F01F0310229A40B4
:102F98003B6A9A607B681B681B6803F48023002BDC
:102FA80018D07B681B681B6803F40023002B08D12A
:102FB8007B681B6C002B24D07B681B6C7868984757
:102FC8001FE07B689B6C002B1BD07B689B6C786830
:102FD800984716E07B681B681B6803F48073002B16
:102FE80007D17B681B687A681268126822F00802A9
:102FF8001A607B681B6C002B03D07B681B6C78689D
:1030080098477B68DB6D03F01F0320229A40BB6959
:103018001340002B00F010817B681B682C4A9342F8
:103028004AD07B681B682B4A934245D07B681B6853
:10303800294A934240D07B681B68284A93423BD078
:103048007B681B68264A934236D07B681B68254AF2
:10305800934231D07B681B68234A93422CD07B680B
:103068001B68224A934227D07B681B68204A9342F8
:1030780022D07B681B681F4A93421DD07B681B685F
:103088001D4A934218D07B681B681C4A934213D090
:103098007B681B681A4A93420ED07B681B68194AE2
:1030A800934209D07B681B68174A934204D07B6817
:1030B8001B68164A93422BD17B681B681B6803F078
:1030C8001003002B14BF01230023DBB22AE000BF4A
:1030D8001000024028000240400002405800024010
:1030E8007000024088000240A0000240B800024080
:1030F80010040240280402404004024058040240E0
:103108007004024088040240A0040240B80402404F
:103118007B681B681B6803F00203002B14BF0123A4
:103128000023DBB2002B00F087807B68DB6D03F0A7
:103138001F0320229A403B6A9A607B6893F83530D7
:10314800DBB2042B39D17B681B687A681268126875
:1031580022F016021A607B681B687A681268526946
:1031680022F080025A617B681B6C002B03D17B68BC
:103178009B6C002B07D07B681B687A681268126802
:1031880022F008021A607B68DB6D03F01F033F2200
:103198009A403B6A9A607B68012283F835207B68F5
:1031A800002283F834207B681B6D002B00F04A83D3
:1031B8007B681B6D7868984744E37B681B681B68CD
:1031C80003F48023002B18D07B681B681B6803F46A
:1031D8000023002B08D17B685B6C002B2CD07B680C
:1031E8005B6C7868984727E07B68DB6B002B23D003
:1031F8007B68DB6B786898471EE07B681B681B68F8
:1032080003F48073002B0FD17B681B687A681268FF
:10321800126822F010021A607B68012283F83520B8
:103228007B68002283F834207B68DB6B002B03D09B
:103238007B68DB6B786898477B685B6D002B00F0D8
:1032480006837B685B6D03F00103002B00F0888028
:103258007B68042283F835207B681B687A4A93428E
:103268004AD07B681B68794A934245D07B681B68C3
:10327800774A934240D07B681B68764A93423BD09A
:103288007B681B68744A934236D07B681B68734A14
:10329800934231D07B681B68714A93422CD07B687B
:1032A8001B68704A934227D07B681B686E4A93421A
:1032B80022D07B681B686D4A93421DD07B681B68CF
:1032C8006B4A934218D07B681B686A4A934213D0B2
:1032D8007B681B68684A93420ED07B681B68674A04
:1032E800934209D07B681B68654A934204D07B6887
:1032F8001B68644A934208D17B681B687A68126825
:10330800126822F001021A6007E07B681B687A687D
:103318001268126822F001021A60FB680133FB6030
:103328007A6A934207D87B681B681B6803F001031D
:10333800002BF2D100E000BF7B681B681B6803F01C
:103348000103002B04D07B68032283F8352003E0B7
:103358007B68012283F835207B68002283F83420BB
:103368007B68DB6C002B00F072827B68DB6C786812
:1033780098476CE27B681B68434A934222D07B687B
:103388001B68424A93421DD07B681B68404A93429F
:1033980018D07B681B683F4A934213D07B681B6830
:1033A8003D4A93420ED07B681B683C4A934209D041
:1033B8007B681B683A4A934204D07B681B68394A89
:1033C800934201D1012300E00023002B00F03F824B
:1033D8007B681B681B683B617B68DB6D03F01F0320
:1033E80004229A407B691340002B00F0CD803B6992
:1033F80003F00403002B00F0C7807B68DB6D03F04B
:103408001F0304229A40FB695A603B6903F4004396
:10341800002B49D03B6903F48033002B09D17B682A
:103428009B6C002B00F010827B689B6C7868984737
:103438000AE27B681B6C002B00F006827B681B6C21
:103448007868984700E200BF100002402800024058
:1034580040000240580002407000024088000240CC
:10346800A0000240B80002401004024028040240B4
:10347800400402405804024070040240880402409C
:10348800A0040240B8040240085402581C540258D0
:103498003054025844540258585402586C54025834
:1034A80080540258945402583B6903F02003002BBF
:1034B80060D17B681B688C4A93424AD07B681B6842
:1034C8008A4A934245D07B681B68894A934240D018
:1034D8007B681B68874A93423BD07B681B68864A97
:1034E800934236D07B681B68844A934231D07B680C
:1034F8001B68834A93422CD07B681B68814A93429D
:1035080027D07B681B68804A934222D07B681B685F
:103518007E4A93421DD07B681B687D4A934218D02F
:103528007B681B687B4A934213D07B681B687A4A86
:1035380093420ED07B681B68784A934209D07B6817
:103548001B68774A934204D07B681B68754A93428C
:1035580008D17B681B687A681268126822F0080232
:103568001A6007E07B681B687A681268126822F0A4
:1035780004021A607B681B6C002B00F065817B6875
:103588001B6C786898475FE17B68DB6D03F01F036D
:1035980002229A407B691340002B00F0C5803B69EA
:1035A80003F00203002B00F0BF807B68DB6D03F0A3
:1035B8001F0302229A40FB695A603B6903F40043E7
:1035C800002B18D03B6903F48033002B09D17B68AA
:1035D8005B6C002B00F03A817B685B6C78689847DD
:1035E80034E17B68DB6B002B00F030817B68DB6BA0
:1035F800786898472AE13B6903F02003002B68D1DB
:103608007B681B68384A93424AD07B681B68374AF4
:10361800934245D07B681B68354A934240D07B680B
:103628001B68344A93423BD07B681B68324A9342FA
:1036380036D07B681B68314A934231D07B681B685F
:103648002F4A93422CD07B681B682E4A934227D07E
:103658007B681B682C4A934222D07B681B682B4AE4
:1036680093421DD07B681B68294A934218D07B6817
:103678001B68284A934213D07B681B68264A9342EA
:103688000ED07B681B68254A934209D07B681B686B
:10369800234A934204D07B681B68224A934208D18C
:1036A8007B681B687A681268126822F014021A6034
:1036B80007E07B681B687A681268126822F00A02C1
:1036C8001A607B68012283F835207B68002283F822
:1036D80034207B68DB6B002B00F0B8807B68DB6BE9
:1036E80078689847B2E000BF100002402800024006
:1036F800400002405800024070000240880002402A
:10370800A0000240B8000240100402402804024011
:1037180040040240580402407004024088040240F9
:10372800A0040240B80402407B68DB6D03F01F036D
:1037380008229A407B691340002B00F088803B697F
:1037480003F00803002B00F082807B681B68414A65
:1037580093424AD07B681B683F4A934245D07B68B6
:103768001B683E4A934240D07B681B683C4A9342A0
:103778003BD07B681B683B4A934236D07B681B680A
:10378800394A934231D07B681B68384A93422CD01F
:103798007B681B68364A934227D07B681B68354A8A
:1037A800934222D07B681B68334A93421DD07B68C2
:1037B8001B68324A934218D07B681B68304A934290
:1037C80013D07B681B682F4A93420ED07B681B6816
:1037D8002D4A934209D07B681B682C4A934204D037
:1037E8007B681B682A4A934208D17B681B687A6801
:1037F8001268126822F01C021A6007E07B681B68D6
:103808007A681268126822F00E021A607B68DB6D13
:1038180003F01F0301229A40FB695A607B6801226A
:103828005A657B68012283F835207B68002283F87B
:1038380034207B68DB6C002B09D07B68DB6C7868F4
:10384800984704E000BF02E000BF00E000BF28374F
:10385800BD4680BD100002402800024040000240E2
:10386800580002407000024088000240A000024058
:10387800B8000240100402402804024040040240FC
:10388800580402407004024088040240A004024028
:10389800B804024080B487B000AFF860B9607A60BD
:1038A8003B60FB689B6D7B61FB689B6D3B61FB68C4
:1038B8001B68844A934272D0FB681B68824A934211
:1038C8006DD0FB681B68814A934268D0FB681B680F
:1038D8007F4A934263D0FB681B687E4A93425ED05E
:1038E800FB681B687C4A934259D0FB681B687B4A7B
:1038F800934254D0FB681B68794A93424FD0FB68C7
:103908001B68784A93424AD0FB681B68764A934200
:1039180045D0FB681B68754A934240D0FB681B681A
:10392800734A93423BD0FB681B68724A934236D075
:10393800FB681B68704A934231D0FB681B686F4A6A
:1039480093422CD0FB681B686D4A934227D0FB68D2
:103958001B686C4A934222D0FB681B686A4A9342F0
:103968001DD0FB681B68694A934218D0FB681B6826
:10397800674A934213D0FB681B68664A93420ED08D
:10398800FB681B68644A934209D0FB681B68634A5A
:10399800934204D0FB681B68614A934201D101231A
:1039A80000E00023002B0DD0FB685B6EFA68926E76
:1039B8005A60FB68DB6E002B04D0FB681B6FFA684B
:1039C800526F5A60FB681B683E4A93424AD0FB68B4
:1039D8001B683D4A934245D0FB681B683B4A9342AB
:1039E80040D0FB681B683A4A93423BD0FB681B688F
:1039F800384A934236D0FB681B68374A934231D025
:103A0800FB681B68354A93422CD0FB681B68344A14
:103A1800934227D0FB681B68324A934222D0FB6846
:103A28001B68314A93421DD0FB681B682F4A93429A
:103A380018D0FB681B682E4A934213D0FB681B689A
:103A48002C4A93420ED0FB681B682B4A934209D03C
:103A5800FB681B68294A934204D0FB681B68284A04
:103A6800934201D1012300E00023002B5AD0FB68C8
:103A7800DB6D03F01F033F229A407B699A60FB6865
:103A88001B68FA681268126822F480221A60FB68C0
:103A98001B683A685A60FB689B68402B08D1FB6832
:103AA8001B687A689A60FB681B68BA68DA6087E006
:103AB800FB681B68BA689A60FB681B687A68DA60FA
:103AC8007EE000BF10000240280002404000024093
:103AD800580002407000024088000240A0000240E6
:103AE800B80002401004024028040240400402408A
:103AF800580402407004024088040240A0040240B6
:103B0800B8040240085402581C5402583054025851
:103B180044540258585402586C540258805402585D
:103B280094540258FB681B68284A934222D0FB68C9
:103B38001B68274A93421DD0FB681B68254A93429D
:103B480018D0FB681B68244A934213D0FB681B6893
:103B5800224A93420ED0FB681B68214A934209D03F
:103B6800FB681B681F4A934204D0FB681B681E4A07
:103B7800934201D1012300E00023002B20D0FB68F1
:103B8800DB6D03F01F0301229A403B695A60FB6812
:103B98001B683A685A60FB689B68402B08D1FB6831
:103BA8001B687A689A60FB681B68BA68DA6007E085
:103BB800FB681B68BA689A60FB681B687A68DA60F9
:103BC80000BF1C37BD465DF8047B70470854025897
:103BD8001C5402583054025844540258585402583D
:103BE8006C540258805402589454025880B485B0DA
:103BF80000AF78607B681B68424A93424AD07B6872
:103C08001B68414A934245D07B681B683F4A9342F0
:103C180040D07B681B683E4A93423BD07B681B6858
:103C28003C4A934236D07B681B683B4A934231D06A
:103C38007B681B68394A93422CD07B681B68384ADA
:103C4800934227D07B681B68364A934222D07B6810
:103C58001B68354A93421DD07B681B68334A9342E0
:103C680018D07B681B68324A934213D07B681B6864
:103C7800304A93420ED07B681B682F4A934209D082
:103C88007B681B682D4A934204D07B681B682C4ACA
:103C9800934201D1012300E00023002B24D07B684C
:103CA8001B68DBB2103B274AA2FB03231B09FB60FE
:103CB800FB6803F00703244AD35C1A467B68DA657D
:103CC800FB68032B08D97B681B681A461F4B1340F7
:103CD8001A1D7B689A650DE07B681B681A461B4BAA
:103CE80013407A68936505E07B681B6823F0FF0240
:103CF8007B689A657B689B6D18461437BD465DF8EE
:103D0800047B704710000240280002404000024037
:103D1800580002407000024088000240A0000240A3
:103D2800B800024010040240280402404004024047
:103D3800580402407004024088040240A004024073
:103D4800B8040240ABAAAAAA4890000800FCFFFFEA
:103D580080B485B000AF78600023FB737B689B69F3
:103D6800002B20D17B689B6A032B58D801A252F8FC
:103D780023F000BF8D3D00089F3D00088D3D0008E1
:103D8800273E00087B68DB6A03F08073002B48D06D
:103D98000123FB7345E07B68DB6AB3F1C07F42D146
:103DA8000123FB733FE07B689B69B3F5005F23D178
:103DB8007B689B6A032B38D801A252F823F000BF16
:103DC800D93D0008DF3D0008D93D0008F13D000855
:103DD8000123FB7330E07B68DB6A03F08073002B00
:103DE80025D00123FB7322E07B68DB6AB3F1C07F37
:103DF8001FD10123FB731CE07B689B6A022B02D94D
:103E0800032B03D018E00123FB7315E07B68DB6A02
:103E180003F08073002B0ED00123FB730BE000BF6F
:103E28000AE000BF08E000BF06E000BF04E000BFF2
:103E380002E000BF00E000BFFB7B18461437BD4618
:103E48005DF8047B704700BF80B485B000AF786030
:103E58007B681B68BB607B681B68384A934222D02A
:103E68007B681B68364A93421DD07B681B68354ABD
:103E7800934218D07B681B68334A934213D07B68FF
:103E88001B68324A93420ED07B681B68304A9342C3
:103E980009D07B681B682F4A934204D07B681B6853
:103EA8002D4A934201D1012300E00023002B1AD0B0
:103EB8007B681B68DBB2083B284AA2FB03231B096B
:103EC800FB60FA68264B13449B001A467B681A6607
:103ED8007B68244A5A66FB6803F01F0301229A4054
:103EE8007B689A6624E07B681B68DBB2103B1E4A3D
:103EF800A2FB03231B09FB60BB681C4A934206D83C
:103F0800BB681B4A934202D9FB680833FB60FA6816
:103F1800184B13449B001A467B681A667B68164A3E
:103F28005A66FB6803F01F0301229A407B689A6671
:103F380000BF1437BD465DF8047B7047085402582B
:103F48001C540258305402584454025858540258C9
:103F58006C5402588054025894540258CDCCCCCC9E
:103F68000096001680580258ABAAAAAAB8040240C4
:103F78000F040240008200108008024080B485B01F
:103F880000AF78607B685B68DBB2FB60FB68002B86
:103F98004AD0FB68082B47D87B681B68254A9342A0
:103FA80022D07B681B68244A93421DD07B681B681B
:103FB800224A934218D07B681B68214A934213D047
:103FC8007B681B681F4A93420ED07B681B681E4A99
:103FD800934209D07B681B681C4A934204D07B68D3
:103FE8001B681B4A934201D1012300E00023002BE8
:103FF8000AD0FA68174B13449B001A467B68DA66A6
:104008007B68154A1A6709E0FA68144B13449B0049
:104018001A467B68DA667B68114A1A67FB68013BB7
:1040280001229A407B685A6700BF1437BD465DF885
:10403800047B7047085402581C54025830540258E4
:1040480044540258585402586C5402588054025828
:10405800945402583F960016405902583F82001067
:104068004009024090B585B000AF78607B68002BAE
:1040780001D10123CBE07B68D3F88430002B06D133
:104088007B682322C3F884207868FCF723FD624A02
:10409800614BD3F8F43043F00203C2F8F4305E4BBE
:1040A800D3F8F43003F00203BB60BB687B681B7A6B
:1040B800002B03D10020FDF701F803E04FF40000C6
:1040C800FCF7FCFF554B5B687B681B687A681268D5
:1040D80002F58052126842F0010203F580531A601B
:1040E800FCF7B2FFF86011E0FCF7AEFF0246FB6890
:1040F800D31AB3F5FA7F09D97B680422C3F888205C
:104108007B68E022C3F88420012380E07B681B6879
:1041180003F580531B6803F00103002BE4D1786892
:1041280000F082F87B681C6801F012FD02463C4BE7
:10413800A3FB02239B0C013BC4F8DC30786800F039
:104148006DFA7B681B687A68126802F588521268F3
:1041580022F4E01242F4002203F588531A607B68C7
:104168005B6903F00303002B09D07B680122C3F8C5
:1041780088207B68E022C3F88420012347E07B681D
:1041880019687B681A6841F2081313441A68254BAA
:1041980013407A68526952001A4341F208130B44DB
:1041A8001A60786800F0D7FA786800F01CFB7B6822
:1041B8001B687A6852680532127812027968496871
:1041C800043109780A43C3F800237B681B687A68BE
:1041D80052680332127811067A68526802321278ED
:1041E800120411437A6852680132127812020A43A3
:1041F8007968496809780A43C3F804237B68002270
:10420800C3F888207B681022C3F88420002318464E
:104218001437BD4690BD00BF004402580004005842
:1042280083DE1B430180FFFF80B584B000AF786058
:104238007B681B68D3F80032FB60FB6823F470636B
:10424800FB6001F085FCB860BB681E4A934208D940
:10425800BB681D4A934204D8FB6843F40073FB60B3
:1042680027E0BB68184A934208D9BB68174A9342AB
:1042780004D8FB6843F44073FB601AE0BB68134A38
:10428800934203D9BB68124A934211D9BB68104ABA
:10429800934208D9BB680F4A934204D8FB6843F499
:1042A8008073FB6005E0FB6843F48063FB6000E01B
:1042B80000BF7B681B68FA68C3F8002200BF10378C
:1042C800BD4680BDFF2C3101BF0E1602FF86930349
:1042D800FFE0F5057FD1F00880B485B000AF7860C5
:1042E80039603B689A683B681B681A433B681B79CE
:1042F800DB061A433B681B7BDB051A433B685B7B89
:104308009B051A433B689B7B5B051A433B68DB7B39
:104318001B051A433B681B7C002B02D14FF400237A
:1043280000E000231A433B685B7C002B02D14FF46A
:10433800003300E000231A433B689B7C1B041A43AC
:104348003B685B691A433B689B691A433B681B7F60
:104358001B031A433B685B7FDB021A433B689B7F66
:10436800002B02D14FF4806300E000231A433B681E
:10437800DB7F5B021A433B6893F82030002B02D1A5
:104388004FF4807300E000231A433B685B6A1A43CA
:104398003B6893F828301B011A433B68DB6A1343D8
:1043A800FB607B681A687B681B681968554B0B4073
:1043B800F9680B4313603B68DB6B5A063B6893F85C
:1043C80038301B061A433B6893F830309B041A4375
:1043D8003B6893F831305B041A433B6893F83230FA
:1043E800002B02D14FF4803300E000231A433B68CE
:1043F8005B6B1343FB607B681A687B681B685968B2
:10440800414B0B40F9680B4353603B6893F84030CD
:104418001A023B685B6C1343FB607B681A687B6815
:104428001B68D968394B0B40F9680B43D3603B686C
:1044380093F854305A003B681B6D1A433B6893F855
:104448004C30002B01D1802300E000231A433B6845
:104458009B6C1B041343FB607B681A687B681B68B2
:10446800196F4FF60D730B40F9680B4313673B68E0
:1044780093F856301A463B6893F855305B0013435F
:10448800FB607B681B687A681268D2F8902022F07B
:104498000301FA680A43C3F890207B681B687A68AE
:1044A8001268D2F8002D22F072013A68926D0A4320
:1044B800C3F8002D3B68DA6D3B6893F86030002B39
:1044C80001D1402300E000231A433B6893F8613090
:1044D8001B011A433B6893F86230DB001343FB600F
:1044E8007B681B687A681268D2F8302D22F07B014D
:1044F800FA680A43C3F8302D00BF1437BD465DF88B
:10450800047B7047838004000080F8C0F0FEFFFF42
:1045180080B485B000AF786039607B6819687B68C3
:104528001B6803F580531A68374B13403A681268C2
:104538001A4301F580531A603B681B791A033B68DC
:104548009B681A433B681B7BDB031343FB607B6858
:1045580019687B681A6841F2040313441A682B4BE4
:104568001340FA681A4341F204030B441A603B688B
:104578005B7B1A043B681B6A1343FB607B68196802
:104588007B681B6803F588531A68214B1340FA6847
:104598001A4301F588531A603B681A693B681B7D0A
:1045A8001B011A433B685B7F1B031343FB607B685B
:1045B80019687B681A6841F2041313441A68154B8A
:1045C8001340FA681A4341F204130B441A603B681B
:1045D8001B7FDA073B689B691343FB607B6819689C
:1045E8007B681A6841F2081313441A680A4B13408F
:1045F800FA681A4341F208130B441A6000BF1437D3
:10460800BD465DF8047B7047FD87FFFFFE2FFFFF67
:1046180000C0FEFFEFEFC0FFFFFFC07F80B5A4B072
:1046280000AF7860012387F83B3000233B65002307
:1046380087F84930002387F84B30012387F830305A
:10464800012387F85E30012387F83A30002387F882
:104658005430012387F88C304FF400537B640023D7
:1046680087F864300023BB66002387F88D30002369
:1046780087F88E304FF4C3633B66002387F83830E1
:1046880000237B63012387F83D30002387F83E3001
:10469800002387F848300023FB6700237B6700234B
:1046A800BB65002387F86C30002387F8823001232C
:1046B80087F84A302023C7F88830012387F84C3020
:1046C800002387F85D304FF04053FB624FF480437E
:1046D8003B64002387F839300223C7F8843000236D
:1046E80087F88030002387F88130002387F85C3012
:1046F800012387F83C3000233B67012387F8783093
:1047080007F12C0319467868FFF7E6FD01233B7390
:1047180001233B610023BB60002387F8243000237A
:104728007B7500233B754FF400133B6200233B77F6
:104738004FF40013BB61002387F825304FF406734C
:10474800BB6207F1080319467868FFF7E1FE00BF6E
:104758009037BD4680BD80B485B000AF7860002337
:10476800FB601DE07B68D968FA6813465B00134458
:10477800DB000B44BB60BB6800221A60BB680022E8
:104788005A60BB6800229A60BB680022DA60B96888
:104798007B68FA68063243F82210FB680133FB6035
:1047A800FB68032BDED97B6800229A627B681A6853
:1047B80041F22C13134403221A607B681A687B6841
:1047C800DB68194641F21413134419607B681B68AF
:1047D8007A68D26803F589531A6000BF1437BD465A
:1047E8005DF8047B704780B485B000AF7860002323
:1047F800FB6023E07B681969FA6813465B00134481
:10480800DB000B44BB60BB6800221A60BB68002257
:104818005A60BB6800229A60BB680022DA60BB68F5
:1048280000221A61BB6800225A61B9687B68FA687D
:10483800123243F82210FB680133FB60FB68032B3C
:10484800D8D97B680022DA657B6800221A667B6803
:1048580000229A667B680022DA667B6800229A65E5
:104868007B681A6841F23013134403221A607B688C
:104878001A687B681B69194641F21C1313441960B6
:104888007B681A687B681B694833194641F228130C
:104898001344196000BF1437BD465DF8047B7047A8
:1048A80080B489B000AF786039600023FB61894B20
:1048B8007B6194E13B681A680121FB6901FA03F303
:1048C80013403B613B69002B00F086813B685B68C5
:1048D80003F00303012B05D03B685B6803F0030377
:1048E800022B30D17B689B68BB61FB695B000322AC
:1048F80002FA03F3DB43BA691340BB613B68DA6829
:10490800FB695B0002FA03F3BA691343BB617B6876
:10491800BA699A607B685B68BB610122FB6902FA2D
:1049280003F3DB43BA691340BB613B685B681B094F
:1049380003F00102FB6902FA03F3BA691343BB618E
:104948007B68BA695A603B685B6803F00303032B12
:1049580017D07B68DB68BB61FB695B00032202FA46
:1049680003F3DB43BA691340BB613B689A68FB6990
:104978005B0002FA03F3BA691343BB617B68BA6947
:10498800DA603B685B6803F00303022B23D1FB6901
:10499800DA087B68083253F82230BB61FB6903F000
:1049A80007039B000F2202FA03F3DB43BA691340A3
:1049B800BB613B681A69FB6903F007039B0002FAB5
:1049C80003F3BA691343BB61FB69DA087B680832F1
:1049D800B96943F822107B681B68BB61FB695B00FF
:1049E800032202FA03F3DB43BA691340BB613B6855
:1049F8005B6803F00302FB695B0002FA03F3BA6920
:104A08001343BB617B68BA691A603B685B6803F44F
:104A18004033002B00F0E0802F4A2F4BD3F8F430BE
:104A280043F00203C2F8F4302B4BD3F8F43003F010
:104A38000203FB60FB68294AFB699B08023352F8B2
:104A48002330BB61FB6903F003039B000F2202FACA
:104A580003F3DB43BA691340BB617B68204A934286
:104A680052D07B681F4A934231D07B681E4A9342DA
:104A78002BD07B681D4A934225D07B681C4A934201
:104A88001FD07B681B4A934219D07B681A4A93420D
:104A980013D07B68194A93420DD07B68184A934219
:104AA80007D07B68174A934201D109232DE00A23D6
:104AB8002BE0082329E0072327E0062325E0052328
:104AC80023E0042321E003231FE002231DE0012348
:104AD8001BE000BF80000058004402580004005842
:104AE800000002580004025800080258000C02583E
:104AF800001002580014025800180258001C0258EE
:104B080000200258002402580023FA6902F0030228
:104B180092009340BA691343BB613849FB699B080B
:104B28000233BA6941F823204FF0B0431B68BB61D8
:104B38003B69DB43BA691340BB613B685B6803F4BC
:104B48008013002B03D0BA693B691343BB614FF054
:104B5800B042BB6913604FF0B0435B68BB613B690F
:104B6800DB43BA691340BB613B685B6803F400131D
:104B7800002B03D0BA693B691343BB614FF0B042C5
:104B8800BB6953607B695B68BB613B69DB43BA699E
:104B98001340BB613B685B6803F40033002B03D010
:104BA800BA693B691343BB617B69BA695A607B691F
:104BB8001B68BB613B69DB43BA691340BB613B6857
:104BC8005B6803F48033002B03D0BA693B69134355
:104BD800BB617B69BA691A60FB690133FB613B6899
:104BE8001A68FB6922FA03F3002B7FF463AE00BF57
:104BF8002437BD465DF8047B704700BF00040058A9
:104C080080B483B000AF78600B467B8013467B701E
:104C18007B78002B03D07A887B689A6103E07B88D5
:104C28001A047B689A6100BF0C37BD465DF8047BA7
:104C38007047000080B584B000AF7860194BDB681E
:104C480003F00403042B0AD0164BDB6803F00702B9
:104C58007B689A4201D001231FE000231DE011491F
:104C6800104BDB6823F007027B681343CB60FCF72B
:104C7800EBF9F86009E0FCF7E7F90246FB68D31A9C
:104C8800B3F57A7F01D9012307E0064B5B6803F48B
:104C98000053B3F5005FEED1002318461037BD4628
:104CA80080BD00BF0048025880B58CB000AF786066
:104CB8007B68002B02D1012300F01CBC7B681B68B9
:104CC80003F00103002B00F087809E4B1B6903F063
:104CD8003803FB629B4B9B6ABB62FB6A102B07D0B5
:104CE800FB6A182B10D1BB6A03F00303022B0BD10C
:104CF800944B1B6803F40033002B6CD07B685B6813
:104D0800002B68D10123F5E37B685B68B3F5803F2E
:104D180006D18C4A8B4B1B6843F4803313602EE01A
:104D28007B685B68002B0CD1864A864B1B6823F492
:104D380080331360834A834B1B6823F480231360FA
:104D48001DE07B685B68B3F5A02F0CD17D4A7D4BD5
:104D58001B6843F4802313607A4A7A4B1B6843F438
:104D6800803313600BE0774A764B1B6823F480335B
:104D78001360744A734B1B6823F4802313607B68A9
:104D88005B68002B13D0FCF75FF9786208E0FCF74A
:104D98005BF902467B6AD31A642B01D90323A9E382
:104DA800684B1B6803F40033002BF0D014E0FCF7C9
:104DB8004BF9786208E0FCF747F902467B6AD31A98
:104DC800642B01D9032395E35E4B1B6803F400337E
:104DD800002BF0D100E000BF7B681B6803F00203E2
:104DE800002B00F0CA80574B1B6903F038033B6265
:104DF800544B9B6AFB613B6A002B07D03B6A182B1C
:104E080056D1FB6903F00303002B51D14D4B1B68AE
:104E180003F00403002B05D07B68DB68002B01D16D
:104E2800012367E34749474B1B6823F019027B6856
:104E3800DB6813430B60FCF707F9786208E0FCF7BE
:104E480003F902467B6AD31A022B01D9032351E3E3
:104E58003C4B1B6803F00403002BF0D0FCF722F94D
:104E6800024641F203039A4217D87B681B69402B1C
:104E780008D1344A334B5B6823F47C3343F4003362
:104E880053607AE02F492F4B5B6823F47C327B68B0
:104E98001B691B0313434B606FE02A49294B5B686E
:104EA80023F0FE427B681B691B0613434B6064E0DA
:104EB8007B68DB68002B47D02249224B1B6823F014
:104EC80019027B68DB6813430B60FCF7BDF8786256
:104ED80008E0FCF7B9F802467B6AD31A022B01D91D
:104EE800032307E3174B1B6803F00403002BF0D0E0
:104EF800FCF7D8F8024641F203039A4217D87B68B8
:104F08001B69402B08D10F4A0E4B5B6823F47C3396
:104F180043F40033536030E00A490A4B5B6823F4DA
:104F28007C327B681B691B0313434B6025E00549F2
:104F3800044B5B6823F0FE427B681B691B06134326
:104F48004B601AE0004402589E4A9E4B1B6823F0AF
:104F580001031360FCF778F8786208E0FCF774F84E
:104F680002467B6AD31A022B01D90323C2E2954B6E
:104F78001B6803F00403002BF0D17B681B6803F067
:104F88001003002B00F0A9808E4B1B6903F0380337
:104F9800BB618C4B9B6A7B61BB69082B07D0BB69E3
:104FA800182B3AD17B6903F00303012B35D1854BCC
:104FB8001B6803F48073002B05D07B68DB69802BAA
:104FC80001D0012396E2FCF76DF8024641F2030393
:104FD8009A4217D87B681B6A202B08D1794A794BEB
:104FE8005B6823F0F84343F08043536075E07549EC
:104FF800744B5B6823F0F8427B681B6A9B0613437B
:105008004B606AE06F496F4BDB6823F07C527B682A
:105018001B6A1B061343CB605FE07B68DB69002BD0
:1050280042D0684A674B1B6843F080031360FCF763
:105038000BF8786208E0FCF707F802467B6AD31A97
:10504800022B01D9032355E25E4B1B6803F48073DE
:10505800002BF0D0FCF726F8024641F203039A42EF
:1050680017D87B681B6A202B08D1564A554B5B68BA
:1050780023F0F84343F0804353602EE05149514BED
:105088005B6823F0F8427B681B6A9B0613434B60FE
:1050980023E04C494B4BDB6823F07C527B681B6A4E
:1050A8001B061343CB6018E0464A464B1B6823F0A7
:1050B80080031360FBF7C8FF786208E0FBF7C4FFC2
:1050C80002467B6AD31A022B01D9032312E23D4B15
:1050D8001B6803F48073002BF0D17B681B6803F016
:1050E8000803002B36D07B685B69002B19D0354A42
:1050F800344B5B6F43F001035367FBF7A5FF7862FE
:1051080008E0FBF7A1FF02467B6AD31A022B01D9FC
:105118000323EFE12B4B5B6F03F00203002BF0D06E
:1051280018E0284A274B5B6F23F001035367FBF70E
:105138008BFF786208E0FBF787FF02467B6AD31A89
:10514800022B01D90323D5E11E4B5B6F03F0020349
:10515800002BF0D17B681B6803F02003002B39D0AB
:105168007B689B69002B19D0164A164B1B6843F4C1
:1051780080531360FBF768FF786208E0FBF764FF71
:1051880002467B6AD31A022B01D90323B2E10D4BE5
:105198001B6803F40053002BF0D01BE0094A094BAD
:1051A8001B6823F480531360FBF74EFF78620BE013
:1051B800FBF74AFF02467B6AD31A022B04D9032362
:1051C80098E100BF00440258A34B1B6803F4005346
:1051D800002BEDD17B681B6803F00403002B00F063
:1051E80081809E4A9D4B1B6843F480731360FBF7D4
:1051F8002BFF786208E0FBF727FF02467B6AD31A89
:10520800642B01D9032375E1944B1B6803F4807365
:10521800002BF0D07B689B68012B06D18E4A8E4B01
:105228001B6F43F0010313672DE07B689B68002B1D
:105238000CD1894A884B1B6F23F001031367864AF8
:10524800854B1B6F23F0040313671CE07B689B6886
:10525800052B0CD1804A804B1B6F43F00403136766
:105268007D4A7D4B1B6F43F0010313670BE07A4ABD
:10527800794B1B6F23F001031367774A764B1B6F3B
:1052880023F0040313677B689B68002B15D0FBF79A
:10529800DBFE78620AE0FBF7D7FE02467B6AD31A88
:1052A80041F28832934201D9032323E16A4B1B6FF1
:1052B80003F00203002BEED014E0FBF7C5FE786282
:1052C8000AE0FBF7C1FE02467B6AD31A41F2883234
:1052D800934201D903230DE15F4B1B6F03F00203D7
:1052E800002BEED17B685B6A002B00F002815A4BE1
:1052F8001B6903F03803182B00F0BD807B685B6ADC
:10530800022B40F09580544A534B1B6823F080735E
:105318001360FBF799FE786208E0FBF795FE0246FA
:105328007B6AD31A022B01D90323E3E04A4B1B689B
:1053380003F00073002BF0D14748474B9A6A484B5B
:1053480013407A68916A7A68D26A12010A43134351
:10535800836241497B681B6B013BC3F308027B688E
:105368005B6B013B5B029BB21A437B689B6B013B07
:105378001B0403F4FE031A437B68DB6B013B1B062B
:1053880003F0FE4313430B63334A334BDB6A23F0CA
:105398000103D3623049304B5A6B324B13407A6861
:1053A800926CD20013434B632B492B4BDB6A23F0DF
:1053B8000C027B681B6C1343CB622749264BDB6AC4
:1053C80023F002027B685B6C1343CB62224A224BB8
:1053D800DB6A43F48033D3621F4A1F4BDB6A43F412
:1053E8000033D3621C4A1C4BDB6A43F48023D3622C
:1053F800194A194BDB6A43F00103D362164A164B6C
:105408001B6843F080731360FBF71EFE786208E0A8
:10541800FBF71AFE02467B6AD31A022B01D9032333
:1054280068E00D4B1B6803F00073002BF0D060E0C0
:10543800094A094B1B6823F080731360FBF704FECD
:10544800786211E0FBF700FE02467B6AD31A022B52
:105458000AD903234EE000BF00440258004802580E
:105468000CFCFFFF0700FFFF244B1B6803F00073D1
:10547800002BE7D13DE0214B9B6A3B611F4B1B6B27
:10548800FB607B685B6A012B31D03B6903F0030248
:105498007B689B6A9A422AD13B691B0903F03F0249
:1054A8007B68DB6A9A4222D1FB68C3F308027B68F7
:1054B8001B6B013B9A421AD1FB685B0A03F07F021F
:1054C8007B685B6B013B9A4211D1FB681B0C03F0B4
:1054D8007F027B689B6B013B9A4208D1FB681B0EDD
:1054E80003F07F027B68DB6B013B9A4201D001230A
:1054F80000E0002318463037BD4680BD00440258FE
:1055080080B586B000AF786039607B68002B01D128
:1055180001239CE18A4B1B6803F00F023B689A4207
:1055280010D28749864B1B6823F00F023B68134350
:105538000B60834B1B6803F00F023B689A4201D053
:10554800012384E17B681B6803F00403002B10D05F
:105558007B681A697B4B9B6903F070039A4208D9F0
:105568007849784B9B6923F070027B681B69134369
:105578008B617B681B6803F00803002B10D07B68E5
:105588005A69704BDB6903F070039A4208D96D4978
:105598006C4BDB6923F070027B685B691343CB615A
:1055A8007B681B6803F01003002B10D07B689A6996
:1055B800644BDB6903F4E0639A4208D96149614BA3
:1055C800DB6923F4E0627B689B691343CB617B68EA
:1055D8001B6803F02003002B10D07B68DA69594B55
:1055E8001B6A03F070039A4208D95649554B1B6A47
:1055F80023F070027B68DB6913430B627B681B68CE
:1056080003F00203002B10D07B68DA684D4B9B69CE
:1056180003F00F039A4208D94A494A4B9B6923F081
:105628000F027B68DB6813438B617B681B6803F0A0
:105638000103002B55D04349424B9B6923F4706208
:105648007B689B6813438B617B685B68022B07D17F
:105658003C4B1B6803F40033002B21D10123F6E0F7
:105668007B685B68032B07D1364B1B6803F000731C
:10567800002B15D10123EAE07B685B68012B07D179
:10568800304B1B6803F48073002B09D10123DEE043
:105698002C4B1B6803F00403002B01D10123D6E037
:1056A8002849284B1B6923F007027B685B68134372
:1056B8000B61FBF7C9FC78610AE0FBF7C5FC024601
:1056C8007B69D31A41F28832934201D90323BEE0A1
:1056D8001C4B1B6903F038027B685B68DB009A424D
:1056E800EBD17B681B6803F00203002B10D07B68AA
:1056F800DA68144B9B6903F00F039A4208D21149E8
:10570800104B9B6923F00F027B68DB6813438B61A6
:105718000B4B1B6803F00F023B689A4214D90849E7
:10572800074B1B6823F00F023B6813430B60044BC5
:105738001B6803F00F023B689A4205D0012386E0FC
:1057480000200052004402587B681B6803F00403E1
:10575800002B10D07B681A693F4B9B6903F07003DC
:105768009A4208D23C493C4B9B6923F070027B6803
:105778001B6913438B617B681B6803F00803002BCC
:1057880010D07B685A69344BDB6903F070039A4286
:1057980008D23149304BDB6923F070027B685B69C2
:1057A8001343CB617B681B6803F01003002B10D0F8
:1057B8007B689A69284BDB6903F4E0639A4208D254
:1057C8002549254BDB6923F4E0627B689B69134319
:1057D800CB617B681B6803F02003002B10D07B682B
:1057E800DA691D4B1B6A03F070039A4208D21A4902
:1057F800194B1B6A23F070027B68DB6913430B6249
:1058080000F034F80146144B9B691B0A03F00F03A0
:10581800124AD35C03F01F0321FA03F33B610E4BDA
:105828009B6903F00F030D4AD35C03F01F033A6929
:1058380022FA03F30A4A13600A4A3B6913600A4BC7
:105848001B681846FBF7B6FB0346FB73FB7B184641
:105858001837BD4680BD00BF004402583890000884
:1058680004000020000000200800002080B489B057
:1058780000AFAF4B1B6903F03803182B00F24E81C1
:1058880001A252F823F000BFF5580008255B000874
:10589800255B0008255B0008255B0008255B0008E0
:1058A800255B0008255B00081B590008255B0008DC
:1058B800255B0008255B0008255B0008255B0008C0
:1058C800255B0008255B000821590008255B0008B6
:1058D800255B0008255B0008255B0008255B0008A0
:1058E800255B0008255B000827590008904B1B68BA
:1058F80003F02003002B09D08D4B1B68DB0803F055
:1059080003038C4A22FA03F3BB610AE1894BBB61AA
:1059180007E1894BBB6104E1884BBB6101E1844B22
:105928009B6A03F003037B61814B9B6A1B0903F0AD
:105938003F033B617E4BDB6A03F00103FB607C4B5A
:105948005B6BDB08C3F30C03FA6802FB03F307EE97
:10595800903AF8EE677AC7ED027A3B69002B00F0BF
:10596800DA807B69012B5AD0012B02D3022B78D025
:1059780099E06F4B1B6803F02003002B2DD06C4B74
:105988001B68DB0803F003036A4A22FA03F37B600F
:105998007B6807EE903AF8EE676A3B6907EE903A43
:1059A800F8EE677A86EEA77A614B1B6BC3F30803A0
:1059B80007EE903AF8EE676A97ED026ADFED605AF3
:1059C800C6EE257A76EEA77AF7EE006A77EEA67A23
:1059D80067EE277AC7ED077A87E03B6907EE903ACA
:1059E800F8EE677ADFED576A86EEA77A504B1B6BA5
:1059F800C3F3080307EE903AF8EE676A97ED026A78
:105A0800DFED4F5AC6EE257A76EEA77AF7EE006AF2
:105A180077EEA67A67EE277AC7ED077A65E03B69E5
:105A280007EE903AF8EE677ADFED476A86EEA77AD6
:105A38003F4B1B6BC3F3080307EE903AF8EE676A17
:105A480097ED026ADFED3E5AC6EE257A76EEA77A22
:105A5800F7EE006A77EEA67A67EE277AC7ED077A3F
:105A680043E03B6907EE903AF8EE677ADFED376A74
:105A780086EEA77A2E4B1B6BC3F3080307EE903A0A
:105A8800F8EE676A97ED026ADFED2D5AC6EE257AC1
:105A980076EEA77AF7EE006A77EEA67A67EE277AAF
:105AA800C7ED077A21E03B6907EE903AF8EE677A8E
:105AB800DFED256A86EEA77A1D4B1B6BC3F308033F
:105AC80007EE903AF8EE676A97ED026ADFED1C5A26
